{
  "contractName": "Tickets",
  "abi": [
    {
      "inputs": [],
      "stateMutability": "nonpayable",
      "type": "constructor"
    },
    {
      "inputs": [],
      "name": "owner",
      "outputs": [
        {
          "internalType": "address",
          "name": "",
          "type": "address"
        }
      ],
      "stateMutability": "view",
      "type": "function"
    },
    {
      "inputs": [
        {
          "internalType": "uint256",
          "name": "",
          "type": "uint256"
        }
      ],
      "name": "tickets",
      "outputs": [
        {
          "internalType": "uint256",
          "name": "id",
          "type": "uint256"
        },
        {
          "internalType": "uint256",
          "name": "price",
          "type": "uint256"
        },
        {
          "internalType": "address",
          "name": "owner",
          "type": "address"
        }
      ],
      "stateMutability": "view",
      "type": "function"
    },
    {
      "inputs": [
        {
          "internalType": "uint256",
          "name": "_index",
          "type": "uint256"
        }
      ],
      "name": "buyTicket",
      "outputs": [],
      "stateMutability": "payable",
      "type": "function"
    }
  ],
  "bytecode": "0x6080604052336000806101000a81548173ffffffffffffffffffffffffffffffffffffffff021916908373ffffffffffffffffffffffffffffffffffffffff16021790555034801561005057600080fd5b5060005b600a81101561013f5767016345785d8a0000600182600a81106100a0577f4e487b7100000000000000000000000000000000000000000000000000000000600052603260045260246000fd5b60030201600101819055506000600182600a81106100e7577f4e487b7100000000000000000000000000000000000000000000000000000000600052603260045260246000fd5b6003020160020160006101000a81548173ffffffffffffffffffffffffffffffffffffffff021916908373ffffffffffffffffffffffffffffffffffffffff16021790555080806101379061014f565b915050610054565b506101c7565b6000819050919050565b600061015a82610145565b91507fffffffffffffffffffffffffffffffffffffffffffffffffffffffffffffffff82141561018d5761018c610198565b5b600182019050919050565b7f4e487b7100000000000000000000000000000000000000000000000000000000600052601160045260246000fd5b6105b5806101d66000396000f3fe6080604052600436106100345760003560e01c806350b447121461003957806367dd74ca146100785780638da5cb5b14610094575b600080fd5b34801561004557600080fd5b50610060600480360381019061005b9190610362565b6100bf565b60405161006f939291906104e4565b60405180910390f35b610092600480360381019061008d9190610362565b61010f565b005b3480156100a057600080fd5b506100a9610329565b6040516100b69190610469565b60405180910390f35b600181600a81106100cf57600080fd5b600302016000915090508060000154908060010154908060020160009054906101000a900473ffffffffffffffffffffffffffffffffffffffff16905083565b600a8110610152576040517f08c379a0000000000000000000000000000000000000000000000000000000008152600401610149906104c4565b60405180910390fd5b600073ffffffffffffffffffffffffffffffffffffffff16600182600a81106101a4577f4e487b7100000000000000000000000000000000000000000000000000000000600052603260045260246000fd5b6003020160020160009054906101000a900473ffffffffffffffffffffffffffffffffffffffff1673ffffffffffffffffffffffffffffffffffffffff1614610222576040517f08c379a0000000000000000000000000000000000000000000000000000000008152600401610219906104a4565b60405180910390fd5b600181600a811061025c577f4e487b7100000000000000000000000000000000000000000000000000000000600052603260045260246000fd5b60030201600101543410156102a6576040517f08c379a000000000000000000000000000000000000000000000000000000000815260040161029d90610484565b60405180910390fd5b33600182600a81106102e1577f4e487b7100000000000000000000000000000000000000000000000000000000600052603260045260246000fd5b6003020160020160006101000a81548173ffffffffffffffffffffffffffffffffffffffff021916908373ffffffffffffffffffffffffffffffffffffffff16021790555050565b60008054906101000a900473ffffffffffffffffffffffffffffffffffffffff1681565b60008135905061035c81610568565b92915050565b60006020828403121561037457600080fd5b60006103828482850161034d565b91505092915050565b6103948161052c565b82525050565b60006103a760158361051b565b91507f4e6f7420656e6f7567682045746865722073656e7400000000000000000000006000830152602082019050919050565b60006103e760148361051b565b91507f5469636b657420616c7265616479206f776e65640000000000000000000000006000830152602082019050919050565b600061042760148361051b565b91507f496e76616c6964207469636b657420696e6465780000000000000000000000006000830152602082019050919050565b6104638161055e565b82525050565b600060208201905061047e600083018461038b565b92915050565b6000602082019050818103600083015261049d8161039a565b9050919050565b600060208201905081810360008301526104bd816103da565b9050919050565b600060208201905081810360008301526104dd8161041a565b9050919050565b60006060820190506104f9600083018661045a565b610506602083018561045a565b610513604083018461038b565b949350505050565b600082825260208201905092915050565b60006105378261053e565b9050919050565b600073ffffffffffffffffffffffffffffffffffffffff82169050919050565b6000819050919050565b6105718161055e565b811461057c57600080fd5b5056fea26469706673582212204bbeb69c9d431bac061a10b2275cf19f6571bb48f661ed5896b793d70478386964736f6c63430008000033",
  "immutableReferences": {},
  "source": "pragma solidity ^0.8.0;\r\n\r\nuint256 constant TOTAL_TICKETS = 10;\r\n\r\ncontract Tickets {\r\n    address public owner = msg.sender;\r\n\r\n    struct Ticket {\r\n        uint256 id;\r\n        uint256 price;\r\n        address owner;\r\n    }\r\n\r\n    Ticket[TOTAL_TICKETS] public tickets;\r\n\r\n    constructor() {\r\n        for (uint256 i = 0; i < TOTAL_TICKETS; i++) {\r\n            tickets[i].price = 1e17; // 0.1 ETH\r\n            tickets[i].owner = address(0);  // Set owner to address(0) initially\r\n        }\r\n    }\r\n\r\n    function buyTicket(uint256 _index) external payable {\r\n        require(_index < TOTAL_TICKETS, \"Invalid ticket index\");\r\n        require(tickets[_index].owner == address(0), \"Ticket already owned\");\r\n        require(msg.value >= tickets[_index].price, \"Not enough Ether sent\");\r\n\r\n        tickets[_index].owner = msg.sender;  // Set the ticket owner to the sender\r\n    }\r\n}\r\n",
  "sourcePath": "C:\\xampp\\htdocs\\web3-tickets-master\\contracts\\Tickets.sol",
  "compiler": {
    "name": "solc",
    "version": "0.8.0+commit.c7dfd78e.Emscripten.clang"
  },
  "schemaVersion": "3.4.16",
  "updatedAt": "2024-11-16T04:12:32.018Z",
  "devdoc": {
    "kind": "dev",
    "methods": {},
    "version": 1
  },
  "userdoc": {
    "kind": "user",
    "methods": {},
    "version": 1
  }
}